{
  "_format": "hh-sol-artifact-1",
  "contractName": "Milton",
  "sourceName": "contracts/Milton.sol",
  "abi": [
    {
      "inputs": [],
      "stateMutability": "nonpayable",
      "type": "constructor"
    },
    {
      "anonymous": false,
      "inputs": [
        {
          "indexed": true,
          "internalType": "address",
          "name": "from",
          "type": "address"
        },
        {
          "indexed": false,
          "internalType": "uint256",
          "name": "timestamp",
          "type": "uint256"
        },
        {
          "indexed": false,
          "internalType": "string",
          "name": "title",
          "type": "string"
        },
        {
          "indexed": false,
          "internalType": "string",
          "name": "category",
          "type": "string"
        },
        {
          "indexed": false,
          "internalType": "string",
          "name": "url",
          "type": "string"
        },
        {
          "indexed": false,
          "internalType": "string",
          "name": "description",
          "type": "string"
        }
      ],
      "name": "NewPost",
      "type": "event"
    },
    {
      "inputs": [
        {
          "internalType": "string",
          "name": "_title",
          "type": "string"
        },
        {
          "internalType": "string",
          "name": "_category",
          "type": "string"
        },
        {
          "internalType": "string",
          "name": "_url",
          "type": "string"
        },
        {
          "internalType": "string",
          "name": "_description",
          "type": "string"
        }
      ],
      "name": "createPost",
      "outputs": [],
      "stateMutability": "nonpayable",
      "type": "function"
    },
    {
      "inputs": [],
      "name": "getAllPosts",
      "outputs": [
        {
          "components": [
            {
              "internalType": "address",
              "name": "poster",
              "type": "address"
            },
            {
              "internalType": "string",
              "name": "title",
              "type": "string"
            },
            {
              "internalType": "string",
              "name": "category",
              "type": "string"
            },
            {
              "internalType": "string",
              "name": "url",
              "type": "string"
            },
            {
              "internalType": "string",
              "name": "description",
              "type": "string"
            },
            {
              "internalType": "uint256",
              "name": "timestamp",
              "type": "uint256"
            }
          ],
          "internalType": "struct Milton.Post[]",
          "name": "",
          "type": "tuple[]"
        }
      ],
      "stateMutability": "view",
      "type": "function"
    },
    {
      "inputs": [],
      "name": "getTotalPosts",
      "outputs": [
        {
          "internalType": "uint256",
          "name": "",
          "type": "uint256"
        }
      ],
      "stateMutability": "view",
      "type": "function"
    }
  ],
  "bytecode": "0x60806040523480156200001157600080fd5b506200005d6040518060400160405280601f81526020017f57656c636f6d6520746f20746865204d696c746f6e20636f6e747261637421008152506200006360201b620005b91760201c565b620001f7565b62000103816040516024016200007a919062000170565b6040516020818303038152906040527f41304fac000000000000000000000000000000000000000000000000000000007bffffffffffffffffffffffffffffffffffffffffffffffffffffffff19166020820180517bffffffffffffffffffffffffffffffffffffffffffffffffffffffff83818316178352505050506200010660201b60201c565b50565b60008151905060006a636f6e736f6c652e6c6f679050602083016000808483855afa5050505050565b60006200013c8262000194565b6200014881856200019f565b93506200015a818560208601620001b0565b6200016581620001e6565b840191505092915050565b600060208201905081810360008301526200018c81846200012f565b905092915050565b600081519050919050565b600082825260208201905092915050565b60005b83811015620001d0578082015181840152602081019050620001b3565b83811115620001e0576000848401525b50505050565b6000601f19601f8301169050919050565b610f8b80620002076000396000f3fe608060405234801561001057600080fd5b50600436106100415760003560e01c80630d57f91f1461004657806330561100146100625780635fe226b414610080575b600080fd5b610060600480360381019061005b91906108c1565b61009e565b005b61006a610267565b6040516100779190610b59565b60405180910390f35b61008861056e565b6040516100959190610c12565b60405180910390f35b60016000546100ad9190610d58565b6000819055506100d6604051806060016040528060288152602001610f2e602891398533610652565b60016040518060c001604052803373ffffffffffffffffffffffffffffffffffffffff16815260200186815260200185815260200184815260200183815260200142815250908060018154018082558091505060019003906000526020600020906006020160009091909190915060008201518160000160006101000a81548173ffffffffffffffffffffffffffffffffffffffff021916908373ffffffffffffffffffffffffffffffffffffffff16021790555060208201518160010190805190602001906101a79291906107b6565b5060408201518160020190805190602001906101c49291906107b6565b5060608201518160030190805190602001906101e19291906107b6565b5060808201518160040190805190602001906101fe9291906107b6565b5060a0820151816005015550503373ffffffffffffffffffffffffffffffffffffffff167fb6be3c5d1610339fd71c7a762c7175606443c63114340275f01ac5b0526e14c04286868686604051610259959493929190610c2d565b60405180910390a250505050565b60606001805480602002602001604051908101604052809291908181526020016000905b8282101561056557838290600052602060002090600602016040518060c00160405290816000820160009054906101000a900473ffffffffffffffffffffffffffffffffffffffff1673ffffffffffffffffffffffffffffffffffffffff1673ffffffffffffffffffffffffffffffffffffffff16815260200160018201805461031490610e2c565b80601f016020809104026020016040519081016040528092919081815260200182805461034090610e2c565b801561038d5780601f106103625761010080835404028352916020019161038d565b820191906000526020600020905b81548152906001019060200180831161037057829003601f168201915b505050505081526020016002820180546103a690610e2c565b80601f01602080910402602001604051908101604052809291908181526020018280546103d290610e2c565b801561041f5780601f106103f45761010080835404028352916020019161041f565b820191906000526020600020905b81548152906001019060200180831161040257829003601f168201915b5050505050815260200160038201805461043890610e2c565b80601f016020809104026020016040519081016040528092919081815260200182805461046490610e2c565b80156104b15780601f10610486576101008083540402835291602001916104b1565b820191906000526020600020905b81548152906001019060200180831161049457829003601f168201915b505050505081526020016004820180546104ca90610e2c565b80601f01602080910402602001604051908101604052809291908181526020018280546104f690610e2c565b80156105435780601f1061051857610100808354040283529160200191610543565b820191906000526020600020905b81548152906001019060200180831161052657829003601f168201915b505050505081526020016005820154815250508152602001906001019061028b565b50505050905090565b60006105b16040518060400160405280601a81526020017f576520686176652068616420256420746f74616c20706f7374730000000000008152506000546106f1565b600054905090565b61064f816040516024016105cd9190610b7b565b6040516020818303038152906040527f41304fac000000000000000000000000000000000000000000000000000000007bffffffffffffffffffffffffffffffffffffffffffffffffffffffff19166020820180517bffffffffffffffffffffffffffffffffffffffffffffffffffffffff838183161783525050505061078d565b50565b6106ec83838360405160240161066a93929190610b9d565b6040516020818303038152906040527f95ed0195000000000000000000000000000000000000000000000000000000007bffffffffffffffffffffffffffffffffffffffffffffffffffffffff19166020820180517bffffffffffffffffffffffffffffffffffffffffffffffffffffffff838183161783525050505061078d565b505050565b6107898282604051602401610707929190610be2565b6040516020818303038152906040527f9710a9d0000000000000000000000000000000000000000000000000000000007bffffffffffffffffffffffffffffffffffffffffffffffffffffffff19166020820180517bffffffffffffffffffffffffffffffffffffffffffffffffffffffff838183161783525050505061078d565b5050565b60008151905060006a636f6e736f6c652e6c6f679050602083016000808483855afa5050505050565b8280546107c290610e2c565b90600052602060002090601f0160209004810192826107e4576000855561082b565b82601f106107fd57805160ff191683800117855561082b565b8280016001018555821561082b579182015b8281111561082a57825182559160200191906001019061080f565b5b509050610838919061083c565b5090565b5b8082111561085557600081600090555060010161083d565b5090565b600061086c61086784610cc1565b610c9c565b90508281526020810184848401111561088457600080fd5b61088f848285610dea565b509392505050565b600082601f8301126108a857600080fd5b81356108b8848260208601610859565b91505092915050565b600080600080608085870312156108d757600080fd5b600085013567ffffffffffffffff8111156108f157600080fd5b6108fd87828801610897565b945050602085013567ffffffffffffffff81111561091a57600080fd5b61092687828801610897565b935050604085013567ffffffffffffffff81111561094357600080fd5b61094f87828801610897565b925050606085013567ffffffffffffffff81111561096c57600080fd5b61097887828801610897565b91505092959194509250565b60006109908383610a9d565b905092915050565b6109a181610dae565b82525050565b6109b081610dae565b82525050565b60006109c182610d02565b6109cb8185610d25565b9350836020820285016109dd85610cf2565b8060005b85811015610a1957848403895281516109fa8582610984565b9450610a0583610d18565b925060208a019950506001810190506109e1565b50829750879550505050505092915050565b6000610a3682610d0d565b610a408185610d36565b9350610a50818560208601610df9565b610a5981610f1c565b840191505092915050565b6000610a6f82610d0d565b610a798185610d47565b9350610a89818560208601610df9565b610a9281610f1c565b840191505092915050565b600060c083016000830151610ab56000860182610998565b5060208301518482036020860152610acd8282610a2b565b91505060408301518482036040860152610ae78282610a2b565b91505060608301518482036060860152610b018282610a2b565b91505060808301518482036080860152610b1b8282610a2b565b91505060a0830151610b3060a0860182610b3b565b508091505092915050565b610b4481610de0565b82525050565b610b5381610de0565b82525050565b60006020820190508181036000830152610b7381846109b6565b905092915050565b60006020820190508181036000830152610b958184610a64565b905092915050565b60006060820190508181036000830152610bb78186610a64565b90508181036020830152610bcb8185610a64565b9050610bda60408301846109a7565b949350505050565b60006040820190508181036000830152610bfc8185610a64565b9050610c0b6020830184610b4a565b9392505050565b6000602082019050610c276000830184610b4a565b92915050565b600060a082019050610c426000830188610b4a565b8181036020830152610c548187610a64565b90508181036040830152610c688186610a64565b90508181036060830152610c7c8185610a64565b90508181036080830152610c908184610a64565b90509695505050505050565b6000610ca6610cb7565b9050610cb28282610e5e565b919050565b6000604051905090565b600067ffffffffffffffff821115610cdc57610cdb610eed565b5b610ce582610f1c565b9050602081019050919050565b6000819050602082019050919050565b600081519050919050565b600081519050919050565b6000602082019050919050565b600082825260208201905092915050565b600082825260208201905092915050565b600082825260208201905092915050565b6000610d6382610de0565b9150610d6e83610de0565b9250827fffffffffffffffffffffffffffffffffffffffffffffffffffffffffffffffff03821115610da357610da2610e8f565b5b828201905092915050565b6000610db982610dc0565b9050919050565b600073ffffffffffffffffffffffffffffffffffffffff82169050919050565b6000819050919050565b82818337600083830152505050565b60005b83811015610e17578082015181840152602081019050610dfc565b83811115610e26576000848401525b50505050565b60006002820490506001821680610e4457607f821691505b60208210811415610e5857610e57610ebe565b5b50919050565b610e6782610f1c565b810181811067ffffffffffffffff82111715610e8657610e85610eed565b5b80604052505050565b7f4e487b7100000000000000000000000000000000000000000000000000000000600052601160045260246000fd5b7f4e487b7100000000000000000000000000000000000000000000000000000000600052602260045260246000fd5b7f4e487b7100000000000000000000000000000000000000000000000000000000600052604160045260246000fd5b6000601f19601f830116905091905056fe4372656174696e67206120706f7374207469746c656420257320617574686f726564206279202573a2646970667358221220ad69cdf4441729aeece28119288f5800febb242842361d11caa9ddedd531180f64736f6c63430008040033",
  "linkReferences": {},
  "deployedLinkReferences": {}
}