{
  "_format": "hh-sol-artifact-1",
  "contractName": "Milton",
  "sourceName": "contracts/Milton.sol",
  "abi": [
    {
      "inputs": [],
      "stateMutability": "payable",
      "type": "constructor"
    },
    {
      "anonymous": false,
      "inputs": [
        {
          "indexed": true,
          "internalType": "address",
          "name": "from",
          "type": "address"
        },
        {
          "indexed": false,
          "internalType": "uint256",
          "name": "timestamp",
          "type": "uint256"
        },
        {
          "indexed": false,
          "internalType": "string",
          "name": "title",
          "type": "string"
        },
        {
          "indexed": false,
          "internalType": "string",
          "name": "category",
          "type": "string"
        },
        {
          "indexed": false,
          "internalType": "string",
          "name": "url",
          "type": "string"
        },
        {
          "indexed": false,
          "internalType": "string",
          "name": "description",
          "type": "string"
        },
        {
          "indexed": false,
          "internalType": "bool",
          "name": "winner",
          "type": "bool"
        },
        {
          "indexed": false,
          "internalType": "uint256",
          "name": "randomNumber",
          "type": "uint256"
        }
      ],
      "name": "NewPost",
      "type": "event"
    },
    {
      "inputs": [
        {
          "internalType": "string",
          "name": "_title",
          "type": "string"
        },
        {
          "internalType": "string",
          "name": "_category",
          "type": "string"
        },
        {
          "internalType": "string",
          "name": "_url",
          "type": "string"
        },
        {
          "internalType": "string",
          "name": "_description",
          "type": "string"
        }
      ],
      "name": "createPost",
      "outputs": [
        {
          "internalType": "bool",
          "name": "",
          "type": "bool"
        }
      ],
      "stateMutability": "nonpayable",
      "type": "function"
    },
    {
      "inputs": [],
      "name": "getAllPosts",
      "outputs": [
        {
          "components": [
            {
              "internalType": "address",
              "name": "poster",
              "type": "address"
            },
            {
              "internalType": "string",
              "name": "title",
              "type": "string"
            },
            {
              "internalType": "string",
              "name": "category",
              "type": "string"
            },
            {
              "internalType": "string",
              "name": "url",
              "type": "string"
            },
            {
              "internalType": "string",
              "name": "description",
              "type": "string"
            },
            {
              "internalType": "uint256",
              "name": "timestamp",
              "type": "uint256"
            },
            {
              "internalType": "bool",
              "name": "winner",
              "type": "bool"
            },
            {
              "internalType": "uint256",
              "name": "randomNumber",
              "type": "uint256"
            }
          ],
          "internalType": "struct Milton.Post[]",
          "name": "",
          "type": "tuple[]"
        }
      ],
      "stateMutability": "view",
      "type": "function"
    },
    {
      "inputs": [],
      "name": "getTotalPosts",
      "outputs": [
        {
          "internalType": "uint256",
          "name": "",
          "type": "uint256"
        }
      ],
      "stateMutability": "view",
      "type": "function"
    },
    {
      "inputs": [
        {
          "internalType": "address",
          "name": "",
          "type": "address"
        }
      ],
      "name": "lastPostCreated",
      "outputs": [
        {
          "internalType": "uint256",
          "name": "",
          "type": "uint256"
        }
      ],
      "stateMutability": "view",
      "type": "function"
    }
  ],
  "bytecode": "0x60806040526200004f6040518060400160405280601f81526020017f57656c636f6d6520746f20746865204d696c746f6e20636f6e747261637421008152506200005560201b6200089e1760201c565b620001e9565b620000f5816040516024016200006c919062000162565b6040516020818303038152906040527f41304fac000000000000000000000000000000000000000000000000000000007bffffffffffffffffffffffffffffffffffffffffffffffffffffffff19166020820180517bffffffffffffffffffffffffffffffffffffffffffffffffffffffff8381831617835250505050620000f860201b60201c565b50565b60008151905060006a636f6e736f6c652e6c6f679050602083016000808483855afa5050505050565b60006200012e8262000186565b6200013a818562000191565b93506200014c818560208601620001a2565b6200015781620001d8565b840191505092915050565b600060208201905081810360008301526200017e818462000121565b905092915050565b600081519050919050565b600082825260208201905092915050565b60005b83811015620001c2578082015181840152602081019050620001a5565b83811115620001d2576000848401525b50505050565b6000601f19601f8301169050919050565b61152b80620001f96000396000f3fe608060405234801561001057600080fd5b506004361061004c5760003560e01c80630d57f91f1461005157806330561100146100815780635fe226b41461009f5780636aad1f25146100bd575b600080fd5b61006b60048036038101906100669190610c80565b6100ed565b6040516100789190610fda565b60405180910390f35b61008961050e565b6040516100969190610fb8565b60405180910390f35b6100a761083b565b6040516100b491906110dc565b60405180910390f35b6100d760048036038101906100d29190610c57565b610886565b6040516100e491906110dc565b60405180910390f35b60008060009050426014600260003373ffffffffffffffffffffffffffffffffffffffff1673ffffffffffffffffffffffffffffffffffffffff168152602001908152602001600020546101419190611249565b10610181576040517f08c379a0000000000000000000000000000000000000000000000000000000008152600401610178906110bc565b60405180910390fd5b42600260003373ffffffffffffffffffffffffffffffffffffffff1673ffffffffffffffffffffffffffffffffffffffff1681526020019081526020016000208190555060016000546101d49190611249565b6000819055506101fd6040518060600160405280602881526020016114ce602891398733610937565b6000606460015442446102109190611249565b61021a9190611249565b610224919061138c565b90506102656040518060400160405280600d81526020017f52616e646f6d206e756d62657200000000000000000000000000000000000000815250826109d6565b80600181905550605a8110156102fa576000655af3107a400090504781116102f85760003373ffffffffffffffffffffffffffffffffffffffff16826040516102ad90610fa3565b60006040518083038185875af1925050503d80600081146102ea576040519150601f19603f3d011682016040523d82523d6000602084013e6102ef565b606091505b50509050809350505b505b60036040518061010001604052803373ffffffffffffffffffffffffffffffffffffffff168152602001898152602001888152602001878152602001868152602001428152602001841515815260200183815250908060018154018082558091505060019003906000526020600020906008020160009091909190915060008201518160000160006101000a81548173ffffffffffffffffffffffffffffffffffffffff021916908373ffffffffffffffffffffffffffffffffffffffff16021790555060208201518160010190805190602001906103da929190610b37565b5060408201518160020190805190602001906103f7929190610b37565b506060820151816003019080519060200190610414929190610b37565b506080820151816004019080519060200190610431929190610b37565b5060a0820151816005015560c08201518160060160006101000a81548160ff02191690831515021790555060e0820151816007015550506104a76040518060400160405280601381526020017f46696e616c2077696e207374617475732069730000000000000000000000000081525083610a72565b3373ffffffffffffffffffffffffffffffffffffffff167fbf019fb41d07d8683c7ced767ef0391b9d3d4eaf1534f3647b65953f6459962e428989898988886040516104f997969594939291906110f7565b60405180910390a28192505050949350505050565b60606003805480602002602001604051908101604052809291908181526020016000905b828210156108325783829060005260206000209060080201604051806101000160405290816000820160009054906101000a900473ffffffffffffffffffffffffffffffffffffffff1673ffffffffffffffffffffffffffffffffffffffff1673ffffffffffffffffffffffffffffffffffffffff1681526020016001820180546105bc90611329565b80601f01602080910402602001604051908101604052809291908181526020018280546105e890611329565b80156106355780601f1061060a57610100808354040283529160200191610635565b820191906000526020600020905b81548152906001019060200180831161061857829003601f168201915b5050505050815260200160028201805461064e90611329565b80601f016020809104026020016040519081016040528092919081815260200182805461067a90611329565b80156106c75780601f1061069c576101008083540402835291602001916106c7565b820191906000526020600020905b8154815290600101906020018083116106aa57829003601f168201915b505050505081526020016003820180546106e090611329565b80601f016020809104026020016040519081016040528092919081815260200182805461070c90611329565b80156107595780601f1061072e57610100808354040283529160200191610759565b820191906000526020600020905b81548152906001019060200180831161073c57829003601f168201915b5050505050815260200160048201805461077290611329565b80601f016020809104026020016040519081016040528092919081815260200182805461079e90611329565b80156107eb5780601f106107c0576101008083540402835291602001916107eb565b820191906000526020600020905b8154815290600101906020018083116107ce57829003601f168201915b50505050508152602001600582015481526020016006820160009054906101000a900460ff1615151515815260200160078201548152505081526020019060010190610532565b50505050905090565b600061087e6040518060400160405280601a81526020017f576520686176652068616420256420746f74616c20706f7374730000000000008152506000546109d6565b600054905090565b60026020528060005260406000206000915090505481565b610934816040516024016108b29190610ff5565b6040516020818303038152906040527f41304fac000000000000000000000000000000000000000000000000000000007bffffffffffffffffffffffffffffffffffffffffffffffffffffffff19166020820180517bffffffffffffffffffffffffffffffffffffffffffffffffffffffff8381831617835250505050610b0e565b50565b6109d183838360405160240161094f93929190611047565b6040516020818303038152906040527f95ed0195000000000000000000000000000000000000000000000000000000007bffffffffffffffffffffffffffffffffffffffffffffffffffffffff19166020820180517bffffffffffffffffffffffffffffffffffffffffffffffffffffffff8381831617835250505050610b0e565b505050565b610a6e82826040516024016109ec92919061108c565b6040516020818303038152906040527f9710a9d0000000000000000000000000000000000000000000000000000000007bffffffffffffffffffffffffffffffffffffffffffffffffffffffff19166020820180517bffffffffffffffffffffffffffffffffffffffffffffffffffffffff8381831617835250505050610b0e565b5050565b610b0a8282604051602401610a88929190611017565b6040516020818303038152906040527fc3b55635000000000000000000000000000000000000000000000000000000007bffffffffffffffffffffffffffffffffffffffffffffffffffffffff19166020820180517bffffffffffffffffffffffffffffffffffffffffffffffffffffffff8381831617835250505050610b0e565b5050565b60008151905060006a636f6e736f6c652e6c6f679050602083016000808483855afa5050505050565b828054610b4390611329565b90600052602060002090601f016020900481019282610b655760008555610bac565b82601f10610b7e57805160ff1916838001178555610bac565b82800160010185558215610bac579182015b82811115610bab578251825591602001919060010190610b90565b5b509050610bb99190610bbd565b5090565b5b80821115610bd6576000816000905550600101610bbe565b5090565b6000610bed610be8846111a7565b611182565b905082815260208101848484011115610c0557600080fd5b610c108482856112e7565b509392505050565b600081359050610c27816114b6565b92915050565b600082601f830112610c3e57600080fd5b8135610c4e848260208601610bda565b91505092915050565b600060208284031215610c6957600080fd5b6000610c7784828501610c18565b91505092915050565b60008060008060808587031215610c9657600080fd5b600085013567ffffffffffffffff811115610cb057600080fd5b610cbc87828801610c2d565b945050602085013567ffffffffffffffff811115610cd957600080fd5b610ce587828801610c2d565b935050604085013567ffffffffffffffff811115610d0257600080fd5b610d0e87828801610c2d565b925050606085013567ffffffffffffffff811115610d2b57600080fd5b610d3787828801610c2d565b91505092959194509250565b6000610d4f8383610ec0565b905092915050565b610d608161129f565b82525050565b610d6f8161129f565b82525050565b6000610d80826111e8565b610d8a818561120b565b935083602082028501610d9c856111d8565b8060005b85811015610dd85784840389528151610db98582610d43565b9450610dc4836111fe565b925060208a01995050600181019050610da0565b50829750879550505050505092915050565b610df3816112b1565b82525050565b610e02816112b1565b82525050565b6000610e13826111f3565b610e1d8185611227565b9350610e2d8185602086016112f6565b610e3681611479565b840191505092915050565b6000610e4c826111f3565b610e568185611238565b9350610e668185602086016112f6565b610e6f81611479565b840191505092915050565b6000610e87600f83611238565b9150610e928261148a565b602082019050919050565b6000610eaa60008361121c565b9150610eb5826114b3565b600082019050919050565b600061010083016000830151610ed96000860182610d57565b5060208301518482036020860152610ef18282610e08565b91505060408301518482036040860152610f0b8282610e08565b91505060608301518482036060860152610f258282610e08565b91505060808301518482036080860152610f3f8282610e08565b91505060a0830151610f5460a0860182610f85565b5060c0830151610f6760c0860182610dea565b5060e0830151610f7a60e0860182610f85565b508091505092915050565b610f8e816112dd565b82525050565b610f9d816112dd565b82525050565b6000610fae82610e9d565b9150819050919050565b60006020820190508181036000830152610fd28184610d75565b905092915050565b6000602082019050610fef6000830184610df9565b92915050565b6000602082019050818103600083015261100f8184610e41565b905092915050565b600060408201905081810360008301526110318185610e41565b90506110406020830184610df9565b9392505050565b600060608201905081810360008301526110618186610e41565b905081810360208301526110758185610e41565b90506110846040830184610d66565b949350505050565b600060408201905081810360008301526110a68185610e41565b90506110b56020830184610f94565b9392505050565b600060208201905081810360008301526110d581610e7a565b9050919050565b60006020820190506110f16000830184610f94565b92915050565b600060e08201905061110c600083018a610f94565b818103602083015261111e8189610e41565b905081810360408301526111328188610e41565b905081810360608301526111468187610e41565b9050818103608083015261115a8186610e41565b905061116960a0830185610df9565b61117660c0830184610f94565b98975050505050505050565b600061118c61119d565b9050611198828261135b565b919050565b6000604051905090565b600067ffffffffffffffff8211156111c2576111c161144a565b5b6111cb82611479565b9050602081019050919050565b6000819050602082019050919050565b600081519050919050565b600081519050919050565b6000602082019050919050565b600082825260208201905092915050565b600081905092915050565b600082825260208201905092915050565b600082825260208201905092915050565b6000611254826112dd565b915061125f836112dd565b9250827fffffffffffffffffffffffffffffffffffffffffffffffffffffffffffffffff03821115611294576112936113bd565b5b828201905092915050565b60006112aa826112bd565b9050919050565b60008115159050919050565b600073ffffffffffffffffffffffffffffffffffffffff82169050919050565b6000819050919050565b82818337600083830152505050565b60005b838110156113145780820151818401526020810190506112f9565b83811115611323576000848401525b50505050565b6000600282049050600182168061134157607f821691505b602082108114156113555761135461141b565b5b50919050565b61136482611479565b810181811067ffffffffffffffff821117156113835761138261144a565b5b80604052505050565b6000611397826112dd565b91506113a2836112dd565b9250826113b2576113b16113ec565b5b828206905092915050565b7f4e487b7100000000000000000000000000000000000000000000000000000000600052601160045260246000fd5b7f4e487b7100000000000000000000000000000000000000000000000000000000600052601260045260246000fd5b7f4e487b7100000000000000000000000000000000000000000000000000000000600052602260045260246000fd5b7f4e487b7100000000000000000000000000000000000000000000000000000000600052604160045260246000fd5b6000601f19601f8301169050919050565b7f57616974203230207365636f6e64730000000000000000000000000000000000600082015250565b50565b6114bf8161129f565b81146114ca57600080fd5b5056fe4372656174696e67206120706f7374207469746c656420257320617574686f726564206279202573a26469706673582212202966081cce50e8e74ba16adc8a119a1cbdd7f05f0262e1b410fcad99815a188c64736f6c63430008040033",
  "linkReferences": {},
  "deployedLinkReferences": {}
}