{
  "_format": "hh-sol-artifact-1",
  "contractName": "Milton",
  "sourceName": "contracts/Milton.sol",
  "abi": [
    {
      "inputs": [],
      "stateMutability": "payable",
      "type": "constructor"
    },
    {
      "anonymous": false,
      "inputs": [
        {
          "indexed": true,
          "internalType": "address",
          "name": "from",
          "type": "address"
        },
        {
          "indexed": false,
          "internalType": "uint256",
          "name": "timestamp",
          "type": "uint256"
        },
        {
          "indexed": false,
          "internalType": "string",
          "name": "title",
          "type": "string"
        },
        {
          "indexed": false,
          "internalType": "string",
          "name": "category",
          "type": "string"
        },
        {
          "indexed": false,
          "internalType": "string",
          "name": "url",
          "type": "string"
        },
        {
          "indexed": false,
          "internalType": "string",
          "name": "description",
          "type": "string"
        },
        {
          "indexed": false,
          "internalType": "bool",
          "name": "winner",
          "type": "bool"
        }
      ],
      "name": "NewPost",
      "type": "event"
    },
    {
      "inputs": [
        {
          "internalType": "string",
          "name": "_title",
          "type": "string"
        },
        {
          "internalType": "string",
          "name": "_category",
          "type": "string"
        },
        {
          "internalType": "string",
          "name": "_url",
          "type": "string"
        },
        {
          "internalType": "string",
          "name": "_description",
          "type": "string"
        }
      ],
      "name": "createPost",
      "outputs": [],
      "stateMutability": "nonpayable",
      "type": "function"
    },
    {
      "inputs": [],
      "name": "getAllPosts",
      "outputs": [
        {
          "components": [
            {
              "internalType": "address",
              "name": "poster",
              "type": "address"
            },
            {
              "internalType": "string",
              "name": "title",
              "type": "string"
            },
            {
              "internalType": "string",
              "name": "category",
              "type": "string"
            },
            {
              "internalType": "string",
              "name": "url",
              "type": "string"
            },
            {
              "internalType": "string",
              "name": "description",
              "type": "string"
            },
            {
              "internalType": "uint256",
              "name": "timestamp",
              "type": "uint256"
            },
            {
              "internalType": "bool",
              "name": "winner",
              "type": "bool"
            }
          ],
          "internalType": "struct Milton.Post[]",
          "name": "",
          "type": "tuple[]"
        }
      ],
      "stateMutability": "view",
      "type": "function"
    },
    {
      "inputs": [],
      "name": "getTotalPosts",
      "outputs": [
        {
          "internalType": "uint256",
          "name": "",
          "type": "uint256"
        }
      ],
      "stateMutability": "view",
      "type": "function"
    },
    {
      "inputs": [
        {
          "internalType": "address",
          "name": "",
          "type": "address"
        }
      ],
      "name": "lastPostCreated",
      "outputs": [
        {
          "internalType": "uint256",
          "name": "",
          "type": "uint256"
        }
      ],
      "stateMutability": "view",
      "type": "function"
    }
  ],
  "bytecode": "0x60806040526200004f6040518060400160405280601f81526020017f57656c636f6d6520746f20746865204d696c746f6e20636f6e747261637421008152506200005560201b620008621760201c565b620001e9565b620000f5816040516024016200006c919062000162565b6040516020818303038152906040527f41304fac000000000000000000000000000000000000000000000000000000007bffffffffffffffffffffffffffffffffffffffffffffffffffffffff19166020820180517bffffffffffffffffffffffffffffffffffffffffffffffffffffffff8381831617835250505050620000f860201b60201c565b50565b60008151905060006a636f6e736f6c652e6c6f679050602083016000808483855afa5050505050565b60006200012e8262000186565b6200013a818562000191565b93506200014c818560208601620001a2565b6200015781620001d8565b840191505092915050565b600060208201905081810360008301526200017e818462000121565b905092915050565b600081519050919050565b600082825260208201905092915050565b60005b83811015620001c2578082015181840152602081019050620001a5565b83811115620001d2576000848401525b50505050565b6000601f19601f8301169050919050565b6114b280620001f96000396000f3fe608060405234801561001057600080fd5b506004361061004c5760003560e01c80630d57f91f14610051578063305611001461006d5780635fe226b41461008b5780636aad1f25146100a9575b600080fd5b61006b60048036038101906100669190610c44565b6100d9565b005b6100756104dd565b6040516100829190610f68565b60405180910390f35b6100936107ff565b6040516100a09190611071565b60405180910390f35b6100c360048036038101906100be9190610c1b565b61084a565b6040516100d09190611071565b60405180910390f35b6000426014600260003373ffffffffffffffffffffffffffffffffffffffff1673ffffffffffffffffffffffffffffffffffffffff1681526020019081526020016000205461012891906111d0565b10610168576040517f08c379a000000000000000000000000000000000000000000000000000000000815260040161015f90611051565b60405180910390fd5b42600260003373ffffffffffffffffffffffffffffffffffffffff1673ffffffffffffffffffffffffffffffffffffffff1681526020019081526020016000208190555060016000546101bb91906111d0565b6000819055506101e46040518060600160405280602881526020016114556028913986336108fb565b6000606460015442446101f791906111d0565b61020191906111d0565b61020b9190611313565b905061024c6040518060400160405280600d81526020017f52616e646f6d206e756d626572000000000000000000000000000000000000008152508261099a565b8060018190555060148110156102e1576000655af3107a400090504781116102df5760003373ffffffffffffffffffffffffffffffffffffffff168260405161029490610f53565b60006040518083038185875af1925050503d80600081146102d1576040519150601f19603f3d011682016040523d82523d6000602084013e6102d6565b606091505b50509050809350505b505b60036040518060e001604052803373ffffffffffffffffffffffffffffffffffffffff168152602001888152602001878152602001868152602001858152602001428152602001841515815250908060018154018082558091505060019003906000526020600020906007020160009091909190915060008201518160000160006101000a81548173ffffffffffffffffffffffffffffffffffffffff021916908373ffffffffffffffffffffffffffffffffffffffff16021790555060208201518160010190805190602001906103ba929190610afb565b5060408201518160020190805190602001906103d7929190610afb565b5060608201518160030190805190602001906103f4929190610afb565b506080820151816004019080519060200190610411929190610afb565b5060a0820151816005015560c08201518160060160006101000a81548160ff021916908315150217905550505061047d6040518060400160405280601381526020017f46696e616c2077696e207374617475732069730000000000000000000000000081525083610a36565b3373ffffffffffffffffffffffffffffffffffffffff167feab7628dc9be62b53d1627a1b1a2d2901fb045edf35298206991c2ff61defd264288888888886040516104cd9695949392919061108c565b60405180910390a2505050505050565b60606003805480602002602001604051908101604052809291908181526020016000905b828210156107f657838290600052602060002090600702016040518060e00160405290816000820160009054906101000a900473ffffffffffffffffffffffffffffffffffffffff1673ffffffffffffffffffffffffffffffffffffffff1673ffffffffffffffffffffffffffffffffffffffff16815260200160018201805461058a906112b0565b80601f01602080910402602001604051908101604052809291908181526020018280546105b6906112b0565b80156106035780601f106105d857610100808354040283529160200191610603565b820191906000526020600020905b8154815290600101906020018083116105e657829003601f168201915b5050505050815260200160028201805461061c906112b0565b80601f0160208091040260200160405190810160405280929190818152602001828054610648906112b0565b80156106955780601f1061066a57610100808354040283529160200191610695565b820191906000526020600020905b81548152906001019060200180831161067857829003601f168201915b505050505081526020016003820180546106ae906112b0565b80601f01602080910402602001604051908101604052809291908181526020018280546106da906112b0565b80156107275780601f106106fc57610100808354040283529160200191610727565b820191906000526020600020905b81548152906001019060200180831161070a57829003601f168201915b50505050508152602001600482018054610740906112b0565b80601f016020809104026020016040519081016040528092919081815260200182805461076c906112b0565b80156107b95780601f1061078e576101008083540402835291602001916107b9565b820191906000526020600020905b81548152906001019060200180831161079c57829003601f168201915b50505050508152602001600582015481526020016006820160009054906101000a900460ff16151515158152505081526020019060010190610501565b50505050905090565b60006108426040518060400160405280601a81526020017f576520686176652068616420256420746f74616c20706f73747300000000000081525060005461099a565b600054905090565b60026020528060005260406000206000915090505481565b6108f8816040516024016108769190610f8a565b6040516020818303038152906040527f41304fac000000000000000000000000000000000000000000000000000000007bffffffffffffffffffffffffffffffffffffffffffffffffffffffff19166020820180517bffffffffffffffffffffffffffffffffffffffffffffffffffffffff8381831617835250505050610ad2565b50565b61099583838360405160240161091393929190610fdc565b6040516020818303038152906040527f95ed0195000000000000000000000000000000000000000000000000000000007bffffffffffffffffffffffffffffffffffffffffffffffffffffffff19166020820180517bffffffffffffffffffffffffffffffffffffffffffffffffffffffff8381831617835250505050610ad2565b505050565b610a3282826040516024016109b0929190611021565b6040516020818303038152906040527f9710a9d0000000000000000000000000000000000000000000000000000000007bffffffffffffffffffffffffffffffffffffffffffffffffffffffff19166020820180517bffffffffffffffffffffffffffffffffffffffffffffffffffffffff8381831617835250505050610ad2565b5050565b610ace8282604051602401610a4c929190610fac565b6040516020818303038152906040527fc3b55635000000000000000000000000000000000000000000000000000000007bffffffffffffffffffffffffffffffffffffffffffffffffffffffff19166020820180517bffffffffffffffffffffffffffffffffffffffffffffffffffffffff8381831617835250505050610ad2565b5050565b60008151905060006a636f6e736f6c652e6c6f679050602083016000808483855afa5050505050565b828054610b07906112b0565b90600052602060002090601f016020900481019282610b295760008555610b70565b82601f10610b4257805160ff1916838001178555610b70565b82800160010185558215610b70579182015b82811115610b6f578251825591602001919060010190610b54565b5b509050610b7d9190610b81565b5090565b5b80821115610b9a576000816000905550600101610b82565b5090565b6000610bb1610bac8461112e565b611109565b905082815260208101848484011115610bc957600080fd5b610bd484828561126e565b509392505050565b600081359050610beb8161143d565b92915050565b600082601f830112610c0257600080fd5b8135610c12848260208601610b9e565b91505092915050565b600060208284031215610c2d57600080fd5b6000610c3b84828501610bdc565b91505092915050565b60008060008060808587031215610c5a57600080fd5b600085013567ffffffffffffffff811115610c7457600080fd5b610c8087828801610bf1565b945050602085013567ffffffffffffffff811115610c9d57600080fd5b610ca987828801610bf1565b935050604085013567ffffffffffffffff811115610cc657600080fd5b610cd287828801610bf1565b925050606085013567ffffffffffffffff811115610cef57600080fd5b610cfb87828801610bf1565b91505092959194509250565b6000610d138383610e84565b905092915050565b610d2481611226565b82525050565b610d3381611226565b82525050565b6000610d448261116f565b610d4e8185611192565b935083602082028501610d608561115f565b8060005b85811015610d9c5784840389528151610d7d8582610d07565b9450610d8883611185565b925060208a01995050600181019050610d64565b50829750879550505050505092915050565b610db781611238565b82525050565b610dc681611238565b82525050565b6000610dd78261117a565b610de181856111ae565b9350610df181856020860161127d565b610dfa81611400565b840191505092915050565b6000610e108261117a565b610e1a81856111bf565b9350610e2a81856020860161127d565b610e3381611400565b840191505092915050565b6000610e4b600f836111bf565b9150610e5682611411565b602082019050919050565b6000610e6e6000836111a3565b9150610e798261143a565b600082019050919050565b600060e083016000830151610e9c6000860182610d1b565b5060208301518482036020860152610eb48282610dcc565b91505060408301518482036040860152610ece8282610dcc565b91505060608301518482036060860152610ee88282610dcc565b91505060808301518482036080860152610f028282610dcc565b91505060a0830151610f1760a0860182610f35565b5060c0830151610f2a60c0860182610dae565b508091505092915050565b610f3e81611264565b82525050565b610f4d81611264565b82525050565b6000610f5e82610e61565b9150819050919050565b60006020820190508181036000830152610f828184610d39565b905092915050565b60006020820190508181036000830152610fa48184610e05565b905092915050565b60006040820190508181036000830152610fc68185610e05565b9050610fd56020830184610dbd565b9392505050565b60006060820190508181036000830152610ff68186610e05565b9050818103602083015261100a8185610e05565b90506110196040830184610d2a565b949350505050565b6000604082019050818103600083015261103b8185610e05565b905061104a6020830184610f44565b9392505050565b6000602082019050818103600083015261106a81610e3e565b9050919050565b60006020820190506110866000830184610f44565b92915050565b600060c0820190506110a16000830189610f44565b81810360208301526110b38188610e05565b905081810360408301526110c78187610e05565b905081810360608301526110db8186610e05565b905081810360808301526110ef8185610e05565b90506110fe60a0830184610dbd565b979650505050505050565b6000611113611124565b905061111f82826112e2565b919050565b6000604051905090565b600067ffffffffffffffff821115611149576111486113d1565b5b61115282611400565b9050602081019050919050565b6000819050602082019050919050565b600081519050919050565b600081519050919050565b6000602082019050919050565b600082825260208201905092915050565b600081905092915050565b600082825260208201905092915050565b600082825260208201905092915050565b60006111db82611264565b91506111e683611264565b9250827fffffffffffffffffffffffffffffffffffffffffffffffffffffffffffffffff0382111561121b5761121a611344565b5b828201905092915050565b600061123182611244565b9050919050565b60008115159050919050565b600073ffffffffffffffffffffffffffffffffffffffff82169050919050565b6000819050919050565b82818337600083830152505050565b60005b8381101561129b578082015181840152602081019050611280565b838111156112aa576000848401525b50505050565b600060028204905060018216806112c857607f821691505b602082108114156112dc576112db6113a2565b5b50919050565b6112eb82611400565b810181811067ffffffffffffffff8211171561130a576113096113d1565b5b80604052505050565b600061131e82611264565b915061132983611264565b92508261133957611338611373565b5b828206905092915050565b7f4e487b7100000000000000000000000000000000000000000000000000000000600052601160045260246000fd5b7f4e487b7100000000000000000000000000000000000000000000000000000000600052601260045260246000fd5b7f4e487b7100000000000000000000000000000000000000000000000000000000600052602260045260246000fd5b7f4e487b7100000000000000000000000000000000000000000000000000000000600052604160045260246000fd5b6000601f19601f8301169050919050565b7f57616974203230207365636f6e64730000000000000000000000000000000000600082015250565b50565b61144681611226565b811461145157600080fd5b5056fe4372656174696e67206120706f7374207469746c656420257320617574686f726564206279202573a26469706673582212202c9722ea554d152b782d62109dd963756118ba3a43d4c0c8e8ca8f8508f774ab64736f6c63430008040033",
  "linkReferences": {},
  "deployedLinkReferences": {}
}